:107000000C9434380C9446380C9446380C9446381A
:107010000C9446380C9446380C9446380C944638F8
:107020000C9446380C9446380C9446380C944638E8
:107030000C9446380C9446380C9446380C944638D8
:107040000C9446380C9446380C94AE380C94463860
:107050000C9446380C9446380C9446380C944638B8
:107060000C9446380C94463811241FBECFEFD8E05C
:10707000DEBFCDBF11E0A0E0B1E001C01D92A63D92
:10708000B107E1F70E9448380C94DE390C940038BF
:107090000E9497390E94DD380C9719F4549A5C9A33
:1070A00002C0549A5C980E94DD380E94A43880ED9A
:1070B00097E02CE231E0F9013197F1F70197D9F728
:1070C00080ED97E0F8CF80E090E0FC01E050FF4FCA
:1070D00010820196883C9105C1F71092C901109267
:1070E000C80108951092C0001092C1001092C20011
:1070F0001092C5001092C40008958091C10088606C
:107100008093C1008091C2008670863029F0809102
:10711000C20086608093C20008958091C1008061A2
:107120008093C1008091C2008670863029F08091E2
:10713000C20086608093C2000895E1ECF0E0808197
:1071400080688083789408958093C6008091C00001
:1071500085FFFCCF08958091C60008951F920F927D
:107160000FB60F9211248F939F93EF93FF93E091AB
:10717000C801F091C9018091C600E050FF4F8083A3
:107180008091C8019091C90101969093C9018093A3
:10719000C8018091C8019091C901883C910520F0F7
:1071A0001092C9011092C801FF91EF919F918F91A8
:1071B0000F900FBE0F901F9018952091C80130912D
:1071C000C901C90108959B01AC01F89480E090E0E9
:1071D000FC01E050FF4F10820196883C9105C1F7F9
:1071E0001092C9011092C8011092C0001092C10003
:1071F0001092C2001092C5001092C40060E673EEB7
:1072000086E190E00E94BC3921503040404050401F
:107210008091C00082608093C000BB27A52F942F6F
:10722000832F8093C5002093C4000E947D380E9464
:107230008D388091C10080688093C1007894089552
:1072400005B600FC04C081E085BF82E085BF0895DB
:1072500005B600FE03C081E085BF15BE0895362F38
:1072600020E02827392740E061E270E1C901880F5A
:10727000991F37FF04C09C012627372701C09C01B6
:107280004F5F483099F7C90108950F931F93CF932B
:10729000DF93062FEC0120E030E010E006C0C901CA
:1072A00069910E942F399C011F5F1017C0F3C9011B
:1072B000DF91CF911F910F910895EAECF1E01192C7
:1072C00081E0E63DF807D9F7089585E58093CA0186
:1072D0008AEA8093CB011092CC018EE18093CD019C
:1072E00085E98093CE018FE08093CF011092D00189
:1072F0001092D10186E98093D2011092D3018AECD9
:1073000091E06AE00E9445399093D4018093D501C1
:107310000895CF93DF93CAECD1E089910E94A438FD
:1073200081E0C63DD807C9F7DF91CF91089505B632
:1073300000FC04C081E085BF82E085BF0E94653902
:1073400060E875E280E090E00E94E3380E948939AD
:1073500088E99AE30197F1F760E076E980E090E050
:107360000E94E3388CE291E02CE231E0F9013197A0
:10737000F1F70197D9F70895A1E21A2EAA1BBB1BBA
:10738000FD010DC0AA1FBB1FEE1FFF1FA217B307F1
:10739000E407F50720F0A21BB30BE40BF50B661F07
:1073A000771F881F991F1A9469F7609570958095CB
:1073B00090959B01AC01BD01CF010895F894FFCFDA
:040000030000700089
:00000001FF
