:107000000C9434380C943E380C943E380C943E3832
:107010000C943E380C943E380C943E380C943E3818
:107020000C943E380C943E380C943E380C943E3808
:107030000C943E380C943E380C943E380C943E38F8
:107040000C943E380C943E380C943E380C943E38E8
:107050000C943E380C943E380C943E380C943E38D8
:107060000C943E380C943E3811241FBECFEFD8E06C
:10707000DEBFCDBF0E9440380C94F8380C94003825
:1070800060E875E280E090E00E94873888E30E9423
:10709000CF3880ED97E02CE231E0F9013197F1F73C
:1070A0000197D9F780ED97E0F8CF1092C0001092C9
:1070B000C1001092C2001092C5001092C400089541
:1070C0008091C10088608093C1008091C200867069
:1070D000863029F08091C20086608093C2000895B6
:1070E0008091C10080618093C1008091C200867050
:1070F000863029F08091C20086608093C200089596
:10710000E1ECF0E080818068808378940895AF920C
:10711000BF92CF92DF92EF92FF920F931F939B014A
:10712000AC01F89400EC10E0F801108271ECE72E4D
:10713000F12CF70110821092C20065ECA62EB12C42
:10714000F501108294ECC92ED12CF601108260E674
:1071500073EE86E190E00E94D638215030404040E6
:107160005040F801808182608083BB27A52F942F37
:10717000832FF5018083F60120830E9460380E94EE
:107180007038F70180818068808378941F910F9117
:10719000FF90EF90DF90CF90BF90AF9008958093D5
:1071A000C6008091C00085FFFCCF0895A1E21A2E91
:1071B000AA1BBB1BFD010DC0AA1FBB1FEE1FFF1F9B
:1071C000A217B307E407F50720F0A21BB30BE40BEB
:1071D000F50B661F771F881F991F1A9469F7609532
:1071E0007095809590959B01AC01BD01CF010895EC
:0471F000F894FFCF41
:040000030000700089
:00000001FF
