:107000000C9434380C9446380C9446380C9446381A
:107010000C9446380C9446380C9446380C944638F8
:107020000C9446380C9446380C9446380C944638E8
:107030000C9446380C9446380C9446380C944638D8
:107040000C9446380C9446380C9446380C944638C8
:107050000C9446380C9446380C9446380C944638B8
:107060000C9446380C94463811241FBECFEFD8E05C
:10707000DEBFCDBF11E0A0E0B1E001C01D92AA309B
:10708000B107E1F70E9448380C9489390C94003814
:1070900060E875E280E090E00E944D3980ED97E075
:1070A0002CE231E0F9013197F1F70197D9F780ED42
:1070B00097E0F8CF1092C0001092C1001092C20069
:1070C0001092C5001092C40008958091C10088609C
:1070D0008093C1008091C2008670863029F0809133
:1070E000C20086608093C20008958091C1008061D3
:1070F0008093C1008091C2008670863029F0809113
:10710000C20086608093C2000895E1ECF0E08081C7
:107110008068808378940895AF92BF92CF92DF9277
:10712000EF92FF920F931F939B01AC01F89400EC38
:1071300010E0F801108271ECE72EF12CF7011082BB
:107140001092C20065ECA62EB12CF501108294ECD1
:10715000C92ED12CF601108260E673EE86E190E034
:107160000E9467392150304040405040F8018081F2
:1071700082608083BB27A52F942F832FF501808306
:10718000F60120830E9465380E947538F7018081DE
:107190008068808378941F910F91FF90EF90DF902B
:1071A000CF90BF90AF9008958093C6008091C000AB
:1071B00085FFFCCF089505B600FC04C081E085BFC3
:1071C00082E085BF089505B600FE03C081E085BF5B
:1071D00015BE0895362F20E02827392740E061E2C8
:1071E00070E1C901880F991F37FF04C09C01262751
:1071F000372701C09C014F5F483099F7C9010895B6
:107200000F931F93CF93DF93062FEC0120E030E024
:1072100010E006C0C90169910E94EA389C011F5F15
:107220001017C0F3C901DF91CF911F910F910895FD
:10723000E0E0F1E0119281E0EA30F807D9F7089533
:1072400085E580930001109201018EE18093020197
:1072500085E9809303018FE080930401109205017A
:1072600086E9809306011092070180E091E068E0D2
:107270000E94003990930801809309010895CF93EB
:10728000DF93C0E0D1E089910E94D43881E0CA3018
:10729000D807C9F7DF91CF910895EF92FF920F932E
:1072A0001F937B018C0105B600FC04C081E085BF03
:1072B00082E085BF0E942039C801B7010E948C3846
:1072C0000E943F391F910F91FF90EF900895A1E226
:1072D0001A2EAA1BBB1BFD010DC0AA1FBB1FEE1F50
:1072E000FF1FA217B307E407F50720F0A21BB30B9B
:1072F000E40BF50B661F771F881F991F1A9469F717
:1073000060957095809590959B01AC01BD01CF0172
:067310000895F894FFCF80
:040000030000700089
:00000001FF
