:100000000C9434000C943E000C943E000C943E0082
:100010000C943E000C943E000C943E000C943E0068
:100020000C943E000C943E000C943E000C943E0058
:100030000C943E000C943E000C943E000C943E0048
:100040000C943E000C943E000C943E000C943E0038
:100050000C943E000C943E000C943E000C943E0028
:100060000C943E000C943E0011241FBECFEFD8E04C
:10007000DEBFCDBF0E9440000C94E2000C94000053
:10008000CF93DF9360E875E280E090E00E947F000C
:10009000CCE2D1E088E30E94B90080ED97E0FE0158
:1000A0003197F1F70197D9F7F5CF1092C000109270
:1000B000C1001092C2001092C5001092C4001092AC
:1000C000C6000895E1ECF0E0808188608083E2EC76
:1000D000F0E08081866080830895E1ECF0E080812B
:1000E00080618083E2ECF0E0808186608083089507
:1000F000E1ECF0E080818068808378940895EF924D
:10010000FF920F931F937B018C010E94550060E6C4
:1001100073EE86E190E0A80197010E94C000215093
:10012000304040405040E0ECF0E0808182608083CD
:10013000BB27A52F942F832F8093C5002093C40045
:10014000A1ECB0E08C9188608C93E2ECF0E08081CF
:10015000866080838C9180618C93808186608083AF
:100160008C9180688C9378941F910F91FF90EF9001
:1001700008958093C6008091C00085FFFCCF08954C
:10018000A1E21A2EAA1BBB1BFD010DC0AA1FBB1F9B
:10019000EE1FFF1FA217B307E407F50720F0A21B0D
:1001A000B30BE40BF50B661F771F881F991F1A947A
:1001B00069F760957095809590959B01AC01BD01A4
:0801C000CF010895F894FFCF70
:00000001FF
